{
  "contractName": "EnigmaticSlothCoin",
  "abi": [
    {
      "inputs": [
        {
          "internalType": "address",
          "name": "initialOwner",
          "type": "address"
        },
        {
          "internalType": "address",
          "name": "_rewardPool",
          "type": "address"
        }
      ],
      "stateMutability": "nonpayable",
      "type": "constructor"
    },
    {
      "inputs": [
        {
          "internalType": "address",
          "name": "spender",
          "type": "address"
        },
        {
          "internalType": "uint256",
          "name": "allowance",
          "type": "uint256"
        },
        {
          "internalType": "uint256",
          "name": "needed",
          "type": "uint256"
        }
      ],
      "name": "ERC20InsufficientAllowance",
      "type": "error"
    },
    {
      "inputs": [
        {
          "internalType": "address",
          "name": "sender",
          "type": "address"
        },
        {
          "internalType": "uint256",
          "name": "balance",
          "type": "uint256"
        },
        {
          "internalType": "uint256",
          "name": "needed",
          "type": "uint256"
        }
      ],
      "name": "ERC20InsufficientBalance",
      "type": "error"
    },
    {
      "inputs": [
        {
          "internalType": "address",
          "name": "approver",
          "type": "address"
        }
      ],
      "name": "ERC20InvalidApprover",
      "type": "error"
    },
    {
      "inputs": [
        {
          "internalType": "address",
          "name": "receiver",
          "type": "address"
        }
      ],
      "name": "ERC20InvalidReceiver",
      "type": "error"
    },
    {
      "inputs": [
        {
          "internalType": "address",
          "name": "sender",
          "type": "address"
        }
      ],
      "name": "ERC20InvalidSender",
      "type": "error"
    },
    {
      "inputs": [
        {
          "internalType": "address",
          "name": "spender",
          "type": "address"
        }
      ],
      "name": "ERC20InvalidSpender",
      "type": "error"
    },
    {
      "inputs": [
        {
          "internalType": "address",
          "name": "owner",
          "type": "address"
        }
      ],
      "name": "OwnableInvalidOwner",
      "type": "error"
    },
    {
      "inputs": [
        {
          "internalType": "address",
          "name": "account",
          "type": "address"
        }
      ],
      "name": "OwnableUnauthorizedAccount",
      "type": "error"
    },
    {
      "inputs": [],
      "name": "ReentrancyGuardReentrantCall",
      "type": "error"
    },
    {
      "anonymous": false,
      "inputs": [
        {
          "indexed": true,
          "internalType": "address",
          "name": "owner",
          "type": "address"
        },
        {
          "indexed": true,
          "internalType": "address",
          "name": "spender",
          "type": "address"
        },
        {
          "indexed": false,
          "internalType": "uint256",
          "name": "value",
          "type": "uint256"
        }
      ],
      "name": "Approval",
      "type": "event"
    },
    {
      "anonymous": false,
      "inputs": [
        {
          "indexed": true,
          "internalType": "address",
          "name": "previousOwner",
          "type": "address"
        },
        {
          "indexed": true,
          "internalType": "address",
          "name": "newOwner",
          "type": "address"
        }
      ],
      "name": "OwnershipTransferred",
      "type": "event"
    },
    {
      "anonymous": false,
      "inputs": [
        {
          "indexed": true,
          "internalType": "address",
          "name": "from",
          "type": "address"
        },
        {
          "indexed": true,
          "internalType": "address",
          "name": "to",
          "type": "address"
        },
        {
          "indexed": false,
          "internalType": "uint256",
          "name": "value",
          "type": "uint256"
        }
      ],
      "name": "Transfer",
      "type": "event"
    },
    {
      "inputs": [
        {
          "internalType": "address",
          "name": "owner",
          "type": "address"
        },
        {
          "internalType": "address",
          "name": "spender",
          "type": "address"
        }
      ],
      "name": "allowance",
      "outputs": [
        {
          "internalType": "uint256",
          "name": "",
          "type": "uint256"
        }
      ],
      "stateMutability": "view",
      "type": "function",
      "constant": true
    },
    {
      "inputs": [
        {
          "internalType": "address",
          "name": "spender",
          "type": "address"
        },
        {
          "internalType": "uint256",
          "name": "value",
          "type": "uint256"
        }
      ],
      "name": "approve",
      "outputs": [
        {
          "internalType": "bool",
          "name": "",
          "type": "bool"
        }
      ],
      "stateMutability": "nonpayable",
      "type": "function"
    },
    {
      "inputs": [
        {
          "internalType": "address",
          "name": "account",
          "type": "address"
        }
      ],
      "name": "balanceOf",
      "outputs": [
        {
          "internalType": "uint256",
          "name": "",
          "type": "uint256"
        }
      ],
      "stateMutability": "view",
      "type": "function",
      "constant": true
    },
    {
      "inputs": [
        {
          "internalType": "uint256",
          "name": "value",
          "type": "uint256"
        }
      ],
      "name": "burn",
      "outputs": [],
      "stateMutability": "nonpayable",
      "type": "function"
    },
    {
      "inputs": [
        {
          "internalType": "address",
          "name": "account",
          "type": "address"
        },
        {
          "internalType": "uint256",
          "name": "value",
          "type": "uint256"
        }
      ],
      "name": "burnFrom",
      "outputs": [],
      "stateMutability": "nonpayable",
      "type": "function"
    },
    {
      "inputs": [],
      "name": "decimals",
      "outputs": [
        {
          "internalType": "uint8",
          "name": "",
          "type": "uint8"
        }
      ],
      "stateMutability": "view",
      "type": "function",
      "constant": true
    },
    {
      "inputs": [
        {
          "internalType": "address",
          "name": "",
          "type": "address"
        }
      ],
      "name": "isStaking",
      "outputs": [
        {
          "internalType": "bool",
          "name": "",
          "type": "bool"
        }
      ],
      "stateMutability": "view",
      "type": "function",
      "constant": true
    },
    {
      "inputs": [
        {
          "internalType": "address",
          "name": "",
          "type": "address"
        }
      ],
      "name": "lastClaimedTime",
      "outputs": [
        {
          "internalType": "uint256",
          "name": "",
          "type": "uint256"
        }
      ],
      "stateMutability": "view",
      "type": "function",
      "constant": true
    },
    {
      "inputs": [],
      "name": "name",
      "outputs": [
        {
          "internalType": "string",
          "name": "",
          "type": "string"
        }
      ],
      "stateMutability": "view",
      "type": "function",
      "constant": true
    },
    {
      "inputs": [],
      "name": "owner",
      "outputs": [
        {
          "internalType": "address",
          "name": "",
          "type": "address"
        }
      ],
      "stateMutability": "view",
      "type": "function",
      "constant": true
    },
    {
      "inputs": [],
      "name": "renounceOwnership",
      "outputs": [],
      "stateMutability": "nonpayable",
      "type": "function"
    },
    {
      "inputs": [],
      "name": "rewardPool",
      "outputs": [
        {
          "internalType": "address",
          "name": "",
          "type": "address"
        }
      ],
      "stateMutability": "view",
      "type": "function",
      "constant": true
    },
    {
      "inputs": [
        {
          "internalType": "address",
          "name": "",
          "type": "address"
        }
      ],
      "name": "stakingBalance",
      "outputs": [
        {
          "internalType": "uint256",
          "name": "",
          "type": "uint256"
        }
      ],
      "stateMutability": "view",
      "type": "function",
      "constant": true
    },
    {
      "inputs": [
        {
          "internalType": "address",
          "name": "",
          "type": "address"
        }
      ],
      "name": "startTime",
      "outputs": [
        {
          "internalType": "uint256",
          "name": "",
          "type": "uint256"
        }
      ],
      "stateMutability": "view",
      "type": "function",
      "constant": true
    },
    {
      "inputs": [],
      "name": "symbol",
      "outputs": [
        {
          "internalType": "string",
          "name": "",
          "type": "string"
        }
      ],
      "stateMutability": "view",
      "type": "function",
      "constant": true
    },
    {
      "inputs": [],
      "name": "totalSupply",
      "outputs": [
        {
          "internalType": "uint256",
          "name": "",
          "type": "uint256"
        }
      ],
      "stateMutability": "view",
      "type": "function",
      "constant": true
    },
    {
      "inputs": [
        {
          "internalType": "address",
          "name": "to",
          "type": "address"
        },
        {
          "internalType": "uint256",
          "name": "value",
          "type": "uint256"
        }
      ],
      "name": "transfer",
      "outputs": [
        {
          "internalType": "bool",
          "name": "",
          "type": "bool"
        }
      ],
      "stateMutability": "nonpayable",
      "type": "function"
    },
    {
      "inputs": [
        {
          "internalType": "address",
          "name": "from",
          "type": "address"
        },
        {
          "internalType": "address",
          "name": "to",
          "type": "address"
        },
        {
          "internalType": "uint256",
          "name": "value",
          "type": "uint256"
        }
      ],
      "name": "transferFrom",
      "outputs": [
        {
          "internalType": "bool",
          "name": "",
          "type": "bool"
        }
      ],
      "stateMutability": "nonpayable",
      "type": "function"
    },
    {
      "inputs": [
        {
          "internalType": "address",
          "name": "newOwner",
          "type": "address"
        }
      ],
      "name": "transferOwnership",
      "outputs": [],
      "stateMutability": "nonpayable",
      "type": "function"
    },
    {
      "inputs": [],
      "name": "claimDailyReward",
      "outputs": [],
      "stateMutability": "nonpayable",
      "type": "function"
    },
    {
      "inputs": [],
      "name": "claimStakingReward",
      "outputs": [],
      "stateMutability": "nonpayable",
      "type": "function"
    },
    {
      "inputs": [
        {
          "internalType": "address",
          "name": "user",
          "type": "address"
        }
      ],
      "name": "calculateStakingReward",
      "outputs": [
        {
          "internalType": "uint256",
          "name": "",
          "type": "uint256"
        }
      ],
      "stateMutability": "view",
      "type": "function",
      "constant": true
    },
    {
      "inputs": [
        {
          "internalType": "address",
          "name": "_newRewardPool",
          "type": "address"
        }
      ],
      "name": "setRewardPool",
      "outputs": [],
      "stateMutability": "nonpayable",
      "type": "function"
    },
    {
      "inputs": [
        {
          "internalType": "uint256",
          "name": "percentage",
          "type": "uint256"
        },
        {
          "internalType": "address[]",
          "name": "recipients",
          "type": "address[]"
        }
      ],
      "name": "airdrop",
      "outputs": [],
      "stateMutability": "nonpayable",
      "type": "function"
    }
  ],
  "bytecode": "0x60806040523480156200001157600080fd5b5060405162002cd938038062002cd98339818101604052810190620000379190620005ad565b816040518060400160405280601281526020017f456e69676d61746963536c6f7468436f696e00000000000000000000000000008152506040518060400160405280600381526020017f45534300000000000000000000000000000000000000000000000000000000008152508160039081620000b591906200086e565b508060049081620000c791906200086e565b505050600073ffffffffffffffffffffffffffffffffffffffff168173ffffffffffffffffffffffffffffffffffffffff16036200013f5760006040517f1e4fbdf700000000000000000000000000000000000000000000000000000000815260040162000136919062000966565b60405180910390fd5b6200015081620001c060201b60201c565b50600160068190555062000177826b033b2e3c9fd0803ce80000006200028660201b60201c565b80600b60006101000a81548173ffffffffffffffffffffffffffffffffffffffff021916908373ffffffffffffffffffffffffffffffffffffffff160217905550505062000a58565b6000600560009054906101000a900473ffffffffffffffffffffffffffffffffffffffff16905081600560006101000a81548173ffffffffffffffffffffffffffffffffffffffff021916908373ffffffffffffffffffffffffffffffffffffffff1602179055508173ffffffffffffffffffffffffffffffffffffffff168173ffffffffffffffffffffffffffffffffffffffff167f8be0079c531659141344cd1fd0a4f28419497f9722a3daafe3b4186f6b6457e060405160405180910390a35050565b600073ffffffffffffffffffffffffffffffffffffffff168273ffffffffffffffffffffffffffffffffffffffff1603620002fb5760006040517fec442f05000000000000000000000000000000000000000000000000000000008152600401620002f2919062000966565b60405180910390fd5b6200030f600083836200031360201b60201c565b5050565b600073ffffffffffffffffffffffffffffffffffffffff168373ffffffffffffffffffffffffffffffffffffffff1603620003695780600260008282546200035c9190620009b2565b925050819055506200043f565b60008060008573ffffffffffffffffffffffffffffffffffffffff1673ffffffffffffffffffffffffffffffffffffffff16815260200190815260200160002054905081811015620003f8578381836040517fe450d38c000000000000000000000000000000000000000000000000000000008152600401620003ef93929190620009fe565b60405180910390fd5b8181036000808673ffffffffffffffffffffffffffffffffffffffff1673ffffffffffffffffffffffffffffffffffffffff16815260200190815260200160002081905550505b600073ffffffffffffffffffffffffffffffffffffffff168273ffffffffffffffffffffffffffffffffffffffff16036200048a5780600260008282540392505081905550620004d7565b806000808473ffffffffffffffffffffffffffffffffffffffff1673ffffffffffffffffffffffffffffffffffffffff168152602001908152602001600020600082825401925050819055505b8173ffffffffffffffffffffffffffffffffffffffff168373ffffffffffffffffffffffffffffffffffffffff167fddf252ad1be2c89b69c2b068fc378daa952ba7f163c4a11628f55a4df523b3ef8360405162000536919062000a3b565b60405180910390a3505050565b600080fd5b600073ffffffffffffffffffffffffffffffffffffffff82169050919050565b6000620005758262000548565b9050919050565b620005878162000568565b81146200059357600080fd5b50565b600081519050620005a7816200057c565b92915050565b60008060408385031215620005c757620005c662000543565b5b6000620005d78582860162000596565b9250506020620005ea8582860162000596565b9150509250929050565b600081519050919050565b7f4e487b7100000000000000000000000000000000000000000000000000000000600052604160045260246000fd5b7f4e487b7100000000000000000000000000000000000000000000000000000000600052602260045260246000fd5b600060028204905060018216806200067657607f821691505b6020821081036200068c576200068b6200062e565b5b50919050565b60008190508160005260206000209050919050565b60006020601f8301049050919050565b600082821b905092915050565b600060088302620006f67fffffffffffffffffffffffffffffffffffffffffffffffffffffffffffffffff82620006b7565b620007028683620006b7565b95508019841693508086168417925050509392505050565b6000819050919050565b6000819050919050565b60006200074f6200074962000743846200071a565b62000724565b6200071a565b9050919050565b6000819050919050565b6200076b836200072e565b620007836200077a8262000756565b848454620006c4565b825550505050565b600090565b6200079a6200078b565b620007a781848462000760565b505050565b5b81811015620007cf57620007c360008262000790565b600181019050620007ad565b5050565b601f8211156200081e57620007e88162000692565b620007f384620006a7565b8101602085101562000803578190505b6200081b6200081285620006a7565b830182620007ac565b50505b505050565b600082821c905092915050565b6000620008436000198460080262000823565b1980831691505092915050565b60006200085e838362000830565b9150826002028217905092915050565b6200087982620005f4565b67ffffffffffffffff811115620008955762000894620005ff565b5b620008a182546200065d565b620008ae828285620007d3565b600060209050601f831160018114620008e65760008415620008d1578287015190505b620008dd858262000850565b8655506200094d565b601f198416620008f68662000692565b60005b828110156200092057848901518255600182019150602085019450602081019050620008f9565b868310156200094057848901516200093c601f89168262000830565b8355505b6001600288020188555050505b505050505050565b620009608162000568565b82525050565b60006020820190506200097d600083018462000955565b92915050565b7f4e487b7100000000000000000000000000000000000000000000000000000000600052601160045260246000fd5b6000620009bf826200071a565b9150620009cc836200071a565b9250828201905080821115620009e757620009e662000983565b5b92915050565b620009f8816200071a565b82525050565b600060608201905062000a15600083018662000955565b62000a246020830185620009ed565b62000a336040830184620009ed565b949350505050565b600060208201905062000a526000830184620009ed565b92915050565b6122718062000a686000396000f3fe608060405234801561001057600080fd5b50600436106101585760003560e01c8063715018a6116100c3578063a9059cbb1161007c578063a9059cbb146103c9578063afc695ce146103f9578063bdf7a8e614610403578063dd62ed3e1461041f578063f2fde38b1461044f578063f3f91fa01461046b57610158565b8063715018a61461034157806378238c371461034b57806379cc67901461036757806383f8b7e2146103835780638da5cb5b1461038d57806395d89b41146103ab57610158565b806342966c681161011557806342966c681461024757806345bc78ab1461026357806366666aa9146102935780636e1dc66e146102b15780636f49712b146102e157806370a082311461031157610158565b806306fdde031461015d578063095ea7b31461017b5780630d505541146101ab57806318160ddd146101db57806323b872dd146101f9578063313ce56714610229575b600080fd5b61016561049b565b604051610172919061180c565b60405180910390f35b610195600480360381019061019091906118d6565b61052d565b6040516101a29190611931565b60405180910390f35b6101c560048036038101906101c0919061194c565b610550565b6040516101d29190611988565b60405180910390f35b6101e36106dd565b6040516101f09190611988565b60405180910390f35b610213600480360381019061020e91906119a3565b6106e7565b6040516102209190611931565b60405180910390f35b610231610716565b60405161023e9190611a12565b60405180910390f35b610261600480360381019061025c9190611a2d565b61071f565b005b61027d6004803603810190610278919061194c565b610733565b60405161028a9190611988565b60405180910390f35b61029b61074b565b6040516102a89190611a69565b60405180910390f35b6102cb60048036038101906102c6919061194c565b610771565b6040516102d89190611988565b60405180910390f35b6102fb60048036038101906102f6919061194c565b610789565b6040516103089190611931565b60405180910390f35b61032b6004803603810190610326919061194c565b6107a9565b6040516103389190611988565b60405180910390f35b6103496107f1565b005b6103656004803603810190610360919061194c565b610805565b005b610381600480360381019061037c91906118d6565b6108c0565b005b61038b6108e0565b005b610395610acc565b6040516103a29190611a69565b60405180910390f35b6103b3610af6565b6040516103c0919061180c565b60405180910390f35b6103e360048036038101906103de91906118d6565b610b88565b6040516103f09190611931565b60405180910390f35b610401610bab565b005b61041d60048036038101906104189190611bcc565b610d34565b005b61043960048036038101906104349190611c28565b610e9a565b6040516104469190611988565b60405180910390f35b6104696004803603810190610464919061194c565b610f21565b005b6104856004803603810190610480919061194c565b610fa7565b6040516104929190611988565b60405180910390f35b6060600380546104aa90611c97565b80601f01602080910402602001604051908101604052809291908181526020018280546104d690611c97565b80156105235780601f106104f857610100808354040283529160200191610523565b820191906000526020600020905b81548152906001019060200180831161050657829003601f168201915b5050505050905090565b600080610538610fbf565b9050610545818585610fc7565b600191505092915050565b6000600860008373ffffffffffffffffffffffffffffffffffffffff1673ffffffffffffffffffffffffffffffffffffffff16815260200190815260200160002060009054906101000a900460ff166105ac57600090506106d8565b6000600960008473ffffffffffffffffffffffffffffffffffffffff1673ffffffffffffffffffffffffffffffffffffffff16815260200190815260200160002054426105f99190611cf7565b90506000683635c9adc5dea00000600760008673ffffffffffffffffffffffffffffffffffffffff1673ffffffffffffffffffffffffffffffffffffffff1681526020019081526020016000205410610653576014610656565b60055b60ff16905060006201518083620f424084600760008a73ffffffffffffffffffffffffffffffffffffffff1673ffffffffffffffffffffffffffffffffffffffff168152602001908152602001600020546106b19190611d2b565b6106bb9190611d9c565b6106c59190611d2b565b6106cf9190611d9c565b90508093505050505b919050565b6000600254905090565b6000806106f2610fbf565b90506106ff858285610fd9565b61070a85858561106d565b60019150509392505050565b60006012905090565b61073061072a610fbf565b82611161565b50565b60076020528060005260406000206000915090505481565b600b60009054906101000a900473ffffffffffffffffffffffffffffffffffffffff1681565b60096020528060005260406000206000915090505481565b60086020528060005260406000206000915054906101000a900460ff1681565b60008060008373ffffffffffffffffffffffffffffffffffffffff1673ffffffffffffffffffffffffffffffffffffffff168152602001908152602001600020549050919050565b6107f96111e3565b610803600061126a565b565b61080d6111e3565b600073ffffffffffffffffffffffffffffffffffffffff168173ffffffffffffffffffffffffffffffffffffffff160361087c576040517f08c379a000000000000000000000000000000000000000000000000000000000815260040161087390611e3f565b60405180910390fd5b80600b60006101000a81548173ffffffffffffffffffffffffffffffffffffffff021916908373ffffffffffffffffffffffffffffffffffffffff16021790555050565b6108d2826108cc610fbf565b83610fd9565b6108dc8282611161565b5050565b683635c9adc5dea000006108f3336107a9565b1015610934576040517f08c379a000000000000000000000000000000000000000000000000000000000815260040161092b90611ed1565b60405180910390fd5b62015180600a60003373ffffffffffffffffffffffffffffffffffffffff1673ffffffffffffffffffffffffffffffffffffffff168152602001908152602001600020546109829190611ef1565b4210156109c4576040517f08c379a00000000000000000000000000000000000000000000000000000000081526004016109bb90611f71565b60405180910390fd5b6000620f4240600a6109d5336107a9565b6109df9190611d2b565b6109e99190611d9c565b905080610a17600b60009054906101000a900473ffffffffffffffffffffffffffffffffffffffff166107a9565b1015610a58576040517f08c379a0000000000000000000000000000000000000000000000000000000008152600401610a4f90612003565b60405180910390fd5b610a85600b60009054906101000a900473ffffffffffffffffffffffffffffffffffffffff16338361106d565b42600a60003373ffffffffffffffffffffffffffffffffffffffff1673ffffffffffffffffffffffffffffffffffffffff1681526020019081526020016000208190555050565b6000600560009054906101000a900473ffffffffffffffffffffffffffffffffffffffff16905090565b606060048054610b0590611c97565b80601f0160208091040260200160405190810160405280929190818152602001828054610b3190611c97565b8015610b7e5780601f10610b5357610100808354040283529160200191610b7e565b820191906000526020600020905b815481529060010190602001808311610b6157829003601f168201915b5050505050905090565b600080610b93610fbf565b9050610ba081858561106d565b600191505092915050565b610bb3611330565b600860003373ffffffffffffffffffffffffffffffffffffffff1673ffffffffffffffffffffffffffffffffffffffff16815260200190815260200160002060009054906101000a900460ff16610c3f576040517f08c379a0000000000000000000000000000000000000000000000000000000008152600401610c369061206f565b60405180910390fd5b6000610c4a33610550565b905060008111610c8f576040517f08c379a0000000000000000000000000000000000000000000000000000000008152600401610c86906120db565b60405180910390fd5b80610cbb600b60009054906101000a900473ffffffffffffffffffffffffffffffffffffffff166107a9565b1015610cfc576040517f08c379a0000000000000000000000000000000000000000000000000000000008152600401610cf390612003565b60405180910390fd5b610d29600b60009054906101000a900473ffffffffffffffffffffffffffffffffffffffff16338361106d565b50610d32611376565b565b610d3c6111e3565b600082118015610d4d575060648211155b610d8c576040517f08c379a0000000000000000000000000000000000000000000000000000000008152600401610d839061216d565b60405180910390fd5b6000606483610d996106dd565b610da39190611d2b565b610dad9190611d9c565b90506000825182610dbe9190611d9c565b905081610dec600b60009054906101000a900473ffffffffffffffffffffffffffffffffffffffff166107a9565b1015610e2d576040517f08c379a0000000000000000000000000000000000000000000000000000000008152600401610e2490612003565b60405180910390fd5b60005b8351811015610e9357610e80600b60009054906101000a900473ffffffffffffffffffffffffffffffffffffffff16858381518110610e7257610e7161218d565b5b60200260200101518461106d565b8080610e8b906121bc565b915050610e30565b5050505050565b6000600160008473ffffffffffffffffffffffffffffffffffffffff1673ffffffffffffffffffffffffffffffffffffffff16815260200190815260200160002060008373ffffffffffffffffffffffffffffffffffffffff1673ffffffffffffffffffffffffffffffffffffffff16815260200190815260200160002054905092915050565b610f296111e3565b600073ffffffffffffffffffffffffffffffffffffffff168173ffffffffffffffffffffffffffffffffffffffff1603610f9b5760006040517f1e4fbdf7000000000000000000000000000000000000000000000000000000008152600401610f929190611a69565b60405180910390fd5b610fa48161126a565b50565b600a6020528060005260406000206000915090505481565b600033905090565b610fd48383836001611380565b505050565b6000610fe58484610e9a565b90507fffffffffffffffffffffffffffffffffffffffffffffffffffffffffffffffff81146110675781811015611057578281836040517ffb8f41b200000000000000000000000000000000000000000000000000000000815260040161104e93929190612204565b60405180910390fd5b61106684848484036000611380565b5b50505050565b600073ffffffffffffffffffffffffffffffffffffffff168373ffffffffffffffffffffffffffffffffffffffff16036110df5760006040517f96c6fd1e0000000000000000000000000000000000000000000000000000000081526004016110d69190611a69565b60405180910390fd5b600073ffffffffffffffffffffffffffffffffffffffff168273ffffffffffffffffffffffffffffffffffffffff16036111515760006040517fec442f050000000000000000000000000000000000000000000000000000000081526004016111489190611a69565b60405180910390fd5b61115c838383611557565b505050565b600073ffffffffffffffffffffffffffffffffffffffff168273ffffffffffffffffffffffffffffffffffffffff16036111d35760006040517f96c6fd1e0000000000000000000000000000000000000000000000000000000081526004016111ca9190611a69565b60405180910390fd5b6111df82600083611557565b5050565b6111eb610fbf565b73ffffffffffffffffffffffffffffffffffffffff16611209610acc565b73ffffffffffffffffffffffffffffffffffffffff16146112685761122c610fbf565b6040517f118cdaa700000000000000000000000000000000000000000000000000000000815260040161125f9190611a69565b60405180910390fd5b565b6000600560009054906101000a900473ffffffffffffffffffffffffffffffffffffffff16905081600560006101000a81548173ffffffffffffffffffffffffffffffffffffffff021916908373ffffffffffffffffffffffffffffffffffffffff1602179055508173ffffffffffffffffffffffffffffffffffffffff168173ffffffffffffffffffffffffffffffffffffffff167f8be0079c531659141344cd1fd0a4f28419497f9722a3daafe3b4186f6b6457e060405160405180910390a35050565b60026006540361136c576040517f3ee5aeb500000000000000000000000000000000000000000000000000000000815260040160405180910390fd5b6002600681905550565b6001600681905550565b600073ffffffffffffffffffffffffffffffffffffffff168473ffffffffffffffffffffffffffffffffffffffff16036113f25760006040517fe602df050000000000000000000000000000000000000000000000000000000081526004016113e99190611a69565b60405180910390fd5b600073ffffffffffffffffffffffffffffffffffffffff168373ffffffffffffffffffffffffffffffffffffffff16036114645760006040517f94280d6200000000000000000000000000000000000000000000000000000000815260040161145b9190611a69565b60405180910390fd5b81600160008673ffffffffffffffffffffffffffffffffffffffff1673ffffffffffffffffffffffffffffffffffffffff16815260200190815260200160002060008573ffffffffffffffffffffffffffffffffffffffff1673ffffffffffffffffffffffffffffffffffffffff168152602001908152602001600020819055508015611551578273ffffffffffffffffffffffffffffffffffffffff168473ffffffffffffffffffffffffffffffffffffffff167f8c5be1e5ebec7d5bd14f71427d1e84f3dd0314c0f7b2291e5b200ac8c7c3b925846040516115489190611988565b60405180910390a35b50505050565b600073ffffffffffffffffffffffffffffffffffffffff168373ffffffffffffffffffffffffffffffffffffffff16036115a957806002600082825461159d9190611ef1565b9250508190555061167c565b60008060008573ffffffffffffffffffffffffffffffffffffffff1673ffffffffffffffffffffffffffffffffffffffff16815260200190815260200160002054905081811015611635578381836040517fe450d38c00000000000000000000000000000000000000000000000000000000815260040161162c93929190612204565b60405180910390fd5b8181036000808673ffffffffffffffffffffffffffffffffffffffff1673ffffffffffffffffffffffffffffffffffffffff16815260200190815260200160002081905550505b600073ffffffffffffffffffffffffffffffffffffffff168273ffffffffffffffffffffffffffffffffffffffff16036116c55780600260008282540392505081905550611712565b806000808473ffffffffffffffffffffffffffffffffffffffff1673ffffffffffffffffffffffffffffffffffffffff168152602001908152602001600020600082825401925050819055505b8173ffffffffffffffffffffffffffffffffffffffff168373ffffffffffffffffffffffffffffffffffffffff167fddf252ad1be2c89b69c2b068fc378daa952ba7f163c4a11628f55a4df523b3ef8360405161176f9190611988565b60405180910390a3505050565b600081519050919050565b600082825260208201905092915050565b60005b838110156117b657808201518184015260208101905061179b565b60008484015250505050565b6000601f19601f8301169050919050565b60006117de8261177c565b6117e88185611787565b93506117f8818560208601611798565b611801816117c2565b840191505092915050565b6000602082019050818103600083015261182681846117d3565b905092915050565b6000604051905090565b600080fd5b600080fd5b600073ffffffffffffffffffffffffffffffffffffffff82169050919050565b600061186d82611842565b9050919050565b61187d81611862565b811461188857600080fd5b50565b60008135905061189a81611874565b92915050565b6000819050919050565b6118b3816118a0565b81146118be57600080fd5b50565b6000813590506118d0816118aa565b92915050565b600080604083850312156118ed576118ec611838565b5b60006118fb8582860161188b565b925050602061190c858286016118c1565b9150509250929050565b60008115159050919050565b61192b81611916565b82525050565b60006020820190506119466000830184611922565b92915050565b60006020828403121561196257611961611838565b5b60006119708482850161188b565b91505092915050565b611982816118a0565b82525050565b600060208201905061199d6000830184611979565b92915050565b6000806000606084860312156119bc576119bb611838565b5b60006119ca8682870161188b565b93505060206119db8682870161188b565b92505060406119ec868287016118c1565b9150509250925092565b600060ff82169050919050565b611a0c816119f6565b82525050565b6000602082019050611a276000830184611a03565b92915050565b600060208284031215611a4357611a42611838565b5b6000611a51848285016118c1565b91505092915050565b611a6381611862565b82525050565b6000602082019050611a7e6000830184611a5a565b92915050565b600080fd5b7f4e487b7100000000000000000000000000000000000000000000000000000000600052604160045260246000fd5b611ac1826117c2565b810181811067ffffffffffffffff82111715611ae057611adf611a89565b5b80604052505050565b6000611af361182e565b9050611aff8282611ab8565b919050565b600067ffffffffffffffff821115611b1f57611b1e611a89565b5b602082029050602081019050919050565b600080fd5b6000611b48611b4384611b04565b611ae9565b90508083825260208201905060208402830185811115611b6b57611b6a611b30565b5b835b81811015611b945780611b80888261188b565b845260208401935050602081019050611b6d565b5050509392505050565b600082601f830112611bb357611bb2611a84565b5b8135611bc3848260208601611b35565b91505092915050565b60008060408385031215611be357611be2611838565b5b6000611bf1858286016118c1565b925050602083013567ffffffffffffffff811115611c1257611c1161183d565b5b611c1e85828601611b9e565b9150509250929050565b60008060408385031215611c3f57611c3e611838565b5b6000611c4d8582860161188b565b9250506020611c5e8582860161188b565b9150509250929050565b7f4e487b7100000000000000000000000000000000000000000000000000000000600052602260045260246000fd5b60006002820490506001821680611caf57607f821691505b602082108103611cc257611cc1611c68565b5b50919050565b7f4e487b7100000000000000000000000000000000000000000000000000000000600052601160045260246000fd5b6000611d02826118a0565b9150611d0d836118a0565b9250828203905081811115611d2557611d24611cc8565b5b92915050565b6000611d36826118a0565b9150611d41836118a0565b9250828202611d4f816118a0565b91508282048414831517611d6657611d65611cc8565b5b5092915050565b7f4e487b7100000000000000000000000000000000000000000000000000000000600052601260045260246000fd5b6000611da7826118a0565b9150611db2836118a0565b925082611dc257611dc1611d6d565b5b828204905092915050565b7f52657761726420706f6f6c2063616e6e6f74206265207a65726f20616464726560008201527f7373000000000000000000000000000000000000000000000000000000000000602082015250565b6000611e29602283611787565b9150611e3482611dcd565b604082019050919050565b60006020820190508181036000830152611e5881611e1c565b9050919050565b7f596f75206d75737420686f6c64206174206c65617374203130303020746f6b6560008201527f6e7320746f20626520656c696769626c6520666f722072657761726473000000602082015250565b6000611ebb603d83611787565b9150611ec682611e5f565b604082019050919050565b60006020820190508181036000830152611eea81611eae565b9050919050565b6000611efc826118a0565b9150611f07836118a0565b9250828201905080821115611f1f57611f1e611cc8565b5b92915050565b7f596f752063616e206f6e6c7920636c61696d206f6e6365206120646179000000600082015250565b6000611f5b601d83611787565b9150611f6682611f25565b602082019050919050565b60006020820190508181036000830152611f8a81611f4e565b9050919050565b7f4e6f7420656e6f75676820746f6b656e7320696e20746865207265776172642060008201527f706f6f6c00000000000000000000000000000000000000000000000000000000602082015250565b6000611fed602483611787565b9150611ff882611f91565b604082019050919050565b6000602082019050818103600083015261201c81611fe0565b9050919050565b7f596f7520617265206e6f74207374616b696e6700000000000000000000000000600082015250565b6000612059601383611787565b915061206482612023565b602082019050919050565b600060208201905081810360008301526120888161204c565b9050919050565b7f4e6f2072657761726420617661696c61626c6500000000000000000000000000600082015250565b60006120c5601383611787565b91506120d08261208f565b602082019050919050565b600060208201905081810360008301526120f4816120b8565b9050919050565b7f50657263656e74616765206d757374206265206265747765656e203120616e6460008201527f2031303000000000000000000000000000000000000000000000000000000000602082015250565b6000612157602483611787565b9150612162826120fb565b604082019050919050565b600060208201905081810360008301526121868161214a565b9050919050565b7f4e487b7100000000000000000000000000000000000000000000000000000000600052603260045260246000fd5b60006121c7826118a0565b91507fffffffffffffffffffffffffffffffffffffffffffffffffffffffffffffffff82036121f9576121f8611cc8565b5b600182019050919050565b60006060820190506122196000830186611a5a565b6122266020830185611979565b6122336040830184611979565b94935050505056fea2646970667358221220b07deb595c249d5d0bc65ad5ef42b30a0678a56bf37fffc193bd421bd0f9045b64736f6c63430008140033",
  "immutableReferences": {},
  "source": "// SPDX-License-Identifier: MIT\npragma solidity ^0.8.0;\n\nimport \"@openzeppelin/contracts/token/ERC20/ERC20.sol\";\nimport \"@openzeppelin/contracts/token/ERC20/extensions/ERC20Burnable.sol\";\nimport \"@openzeppelin/contracts/utils/ReentrancyGuard.sol\";\nimport \"@openzeppelin/contracts/access/Ownable.sol\";\n\ncontract EnigmaticSlothCoin is ERC20, ERC20Burnable, Ownable, ReentrancyGuard {\n    uint256 private constant INITIAL_SUPPLY = 1e9 * 1e18; // Initial token supply of 1 billion\n    uint256 private constant TRANSACTION_FEE_PERCENT = 1; // 1% transaction fee\n\n    mapping(address => uint256) public stakingBalance; // Maps user address to their staked balance\n    mapping(address => bool) public isStaking; // Maps user address to their staking status\n    mapping(address => uint256) public startTime; // Maps user address to the time they started staking\n    mapping(address => uint256) public lastClaimedTime; // Maps user address to the time they last claimed rewards\n\n    address public rewardPool; // Address of the reward pool\n\n    constructor(address initialOwner, address _rewardPool) ERC20(\"EnigmaticSlothCoin\", \"ESC\") Ownable(initialOwner) {\n        _mint(initialOwner, INITIAL_SUPPLY); // Mint initial tokens to the contract deployer\n        rewardPool = _rewardPool; // Set the reward pool address\n    }\n\n    // Allows users to claim daily rewards\n    function claimDailyReward() public {\n        require(balanceOf(msg.sender) >= 1000 * 1e18, \"You must hold at least 1000 tokens to be eligible for rewards\");\n        require(block.timestamp >= lastClaimedTime[msg.sender] + 1 days, \"You can only claim once a day\");\n\n        uint256 reward = balanceOf(msg.sender) * 10 / 1000000; // 0.001% of the user's balance\n        require(balanceOf(rewardPool) >= reward, \"Not enough tokens in the reward pool\");\n        _transfer(rewardPool, msg.sender, reward);\n        lastClaimedTime[msg.sender] = block.timestamp;\n    }\n\n    // Allows users to claim staking rewards\n    function claimStakingReward() external nonReentrant {\n        require(isStaking[msg.sender], \"You are not staking\");\n        uint256 reward = calculateStakingReward(msg.sender);\n        require(reward > 0, \"No reward available\");\n        require(balanceOf(rewardPool) >= reward, \"Not enough tokens in the reward pool\");\n        _transfer(rewardPool, msg.sender, reward);\n    }\n\n    // Calculates staking rewards for a user\n    function calculateStakingReward(address user) public view returns(uint256) {\n        if (!isStaking[user]) return 0;\n        uint256 stakingTime = block.timestamp - startTime[user];\n        uint256 rewardRate = stakingBalance[user] < 1000 * 1e18 ? 5 : 20; // 0.0005% or 0.002% per day\n        uint256 reward = stakingBalance[user] * rewardRate / 1000000 * stakingTime / 86400; // Reward calculation\n        return reward;\n    }\n\n    // Allows the owner to set the reward pool address\n    function setRewardPool(address _newRewardPool) external onlyOwner {\n        require(_newRewardPool != address(0), \"Reward pool cannot be zero address\");\n        rewardPool = _newRewardPool;\n    }\n\n    // Allows the owner to distribute tokens as airdrop to multiple recipients\n    function airdrop(uint256 percentage, address[] memory recipients) external onlyOwner {\n        require(percentage > 0 && percentage <= 100, \"Percentage must be between 1 and 100\");\n        uint256 totalAirdropAmount = totalSupply() * percentage / 100; // Calculate total airdrop amount\n        uint256 individualAmount = totalAirdropAmount / recipients.length; // Calculate individual airdrop amount\n        require(balanceOf(rewardPool) >= totalAirdropAmount, \"Not enough tokens in the reward pool\");\n\n        for (uint256 i = 0; i < recipients.length; i++) {\n            _transfer(rewardPool, recipients[i], individualAmount); // Transfer tokens to each recipient\n        }\n    }\n}\n",
  "sourcePath": "/Users/hsuanlin/Desktop/MyTruffleProject/ESC/contracts/ESC.sol",
  "compiler": {
    "name": "solc",
    "version": "0.8.20+commit.a1b79de6.Emscripten.clang"
  },
  "schemaVersion": "3.4.16",
  "updatedAt": "2024-04-29T18:38:06.517Z",
  "networkType": "ethereum",
  "devdoc": {
    "errors": {
      "ERC20InsufficientAllowance(address,uint256,uint256)": [
        {
          "details": "Indicates a failure with the `spender`s `allowance`. Used in transfers.",
          "params": {
            "allowance": "Amount of tokens a `spender` is allowed to operate with.",
            "needed": "Minimum amount required to perform a transfer.",
            "spender": "Address that may be allowed to operate on tokens without being their owner."
          }
        }
      ],
      "ERC20InsufficientBalance(address,uint256,uint256)": [
        {
          "details": "Indicates an error related to the current `balance` of a `sender`. Used in transfers.",
          "params": {
            "balance": "Current balance for the interacting account.",
            "needed": "Minimum amount required to perform a transfer.",
            "sender": "Address whose tokens are being transferred."
          }
        }
      ],
      "ERC20InvalidApprover(address)": [
        {
          "details": "Indicates a failure with the `approver` of a token to be approved. Used in approvals.",
          "params": {
            "approver": "Address initiating an approval operation."
          }
        }
      ],
      "ERC20InvalidReceiver(address)": [
        {
          "details": "Indicates a failure with the token `receiver`. Used in transfers.",
          "params": {
            "receiver": "Address to which tokens are being transferred."
          }
        }
      ],
      "ERC20InvalidSender(address)": [
        {
          "details": "Indicates a failure with the token `sender`. Used in transfers.",
          "params": {
            "sender": "Address whose tokens are being transferred."
          }
        }
      ],
      "ERC20InvalidSpender(address)": [
        {
          "details": "Indicates a failure with the `spender` to be approved. Used in approvals.",
          "params": {
            "spender": "Address that may be allowed to operate on tokens without being their owner."
          }
        }
      ],
      "OwnableInvalidOwner(address)": [
        {
          "details": "The owner is not a valid owner account. (eg. `address(0)`)"
        }
      ],
      "OwnableUnauthorizedAccount(address)": [
        {
          "details": "The caller account is not authorized to perform an operation."
        }
      ],
      "ReentrancyGuardReentrantCall()": [
        {
          "details": "Unauthorized reentrant call."
        }
      ]
    },
    "events": {
      "Approval(address,address,uint256)": {
        "details": "Emitted when the allowance of a `spender` for an `owner` is set by a call to {approve}. `value` is the new allowance."
      },
      "Transfer(address,address,uint256)": {
        "details": "Emitted when `value` tokens are moved from one account (`from`) to another (`to`). Note that `value` may be zero."
      }
    },
    "kind": "dev",
    "methods": {
      "allowance(address,address)": {
        "details": "See {IERC20-allowance}."
      },
      "approve(address,uint256)": {
        "details": "See {IERC20-approve}. NOTE: If `value` is the maximum `uint256`, the allowance is not updated on `transferFrom`. This is semantically equivalent to an infinite approval. Requirements: - `spender` cannot be the zero address."
      },
      "balanceOf(address)": {
        "details": "See {IERC20-balanceOf}."
      },
      "burn(uint256)": {
        "details": "Destroys a `value` amount of tokens from the caller. See {ERC20-_burn}."
      },
      "burnFrom(address,uint256)": {
        "details": "Destroys a `value` amount of tokens from `account`, deducting from the caller's allowance. See {ERC20-_burn} and {ERC20-allowance}. Requirements: - the caller must have allowance for ``accounts``'s tokens of at least `value`."
      },
      "decimals()": {
        "details": "Returns the number of decimals used to get its user representation. For example, if `decimals` equals `2`, a balance of `505` tokens should be displayed to a user as `5.05` (`505 / 10 ** 2`). Tokens usually opt for a value of 18, imitating the relationship between Ether and Wei. This is the default value returned by this function, unless it's overridden. NOTE: This information is only used for _display_ purposes: it in no way affects any of the arithmetic of the contract, including {IERC20-balanceOf} and {IERC20-transfer}."
      },
      "name()": {
        "details": "Returns the name of the token."
      },
      "owner()": {
        "details": "Returns the address of the current owner."
      },
      "renounceOwnership()": {
        "details": "Leaves the contract without owner. It will not be possible to call `onlyOwner` functions. Can only be called by the current owner. NOTE: Renouncing ownership will leave the contract without an owner, thereby disabling any functionality that is only available to the owner."
      },
      "symbol()": {
        "details": "Returns the symbol of the token, usually a shorter version of the name."
      },
      "totalSupply()": {
        "details": "See {IERC20-totalSupply}."
      },
      "transfer(address,uint256)": {
        "details": "See {IERC20-transfer}. Requirements: - `to` cannot be the zero address. - the caller must have a balance of at least `value`."
      },
      "transferFrom(address,address,uint256)": {
        "details": "See {IERC20-transferFrom}. Emits an {Approval} event indicating the updated allowance. This is not required by the EIP. See the note at the beginning of {ERC20}. NOTE: Does not update the allowance if the current allowance is the maximum `uint256`. Requirements: - `from` and `to` cannot be the zero address. - `from` must have a balance of at least `value`. - the caller must have allowance for ``from``'s tokens of at least `value`."
      },
      "transferOwnership(address)": {
        "details": "Transfers ownership of the contract to a new account (`newOwner`). Can only be called by the current owner."
      }
    },
    "version": 1
  },
  "userdoc": {
    "kind": "user",
    "methods": {},
    "version": 1
  }
}