{
  "contractName": "LiquidityPool",
  "abi": [
    {
      "inputs": [
        {
          "internalType": "address",
          "name": "_enigmaticSlothCoin",
          "type": "address"
        }
      ],
      "stateMutability": "nonpayable",
      "type": "constructor"
    },
    {
      "inputs": [
        {
          "internalType": "uint256",
          "name": "amount",
          "type": "uint256"
        }
      ],
      "name": "addLiquidity",
      "outputs": [],
      "stateMutability": "nonpayable",
      "type": "function"
    },
    {
      "inputs": [
        {
          "internalType": "address",
          "name": "recipient",
          "type": "address"
        }
      ],
      "name": "claimLP",
      "outputs": [],
      "stateMutability": "nonpayable",
      "type": "function"
    }
  ],
  "bytecode": "0x608060405234801561001057600080fd5b506040516102b93803806102b9833981810160405281019061003291906100db565b806000806101000a81548173ffffffffffffffffffffffffffffffffffffffff021916908373ffffffffffffffffffffffffffffffffffffffff16021790555050610108565b600080fd5b600073ffffffffffffffffffffffffffffffffffffffff82169050919050565b60006100a88261007d565b9050919050565b6100b88161009d565b81146100c357600080fd5b50565b6000815190506100d5816100af565b92915050565b6000602082840312156100f1576100f0610078565b5b60006100ff848285016100c6565b91505092915050565b6101a2806101176000396000f3fe608060405234801561001057600080fd5b50600436106100365760003560e01c806351c6590a1461003b578063e8bbb75b14610057575b600080fd5b610055600480360381019061005091906100b4565b610073565b005b610071600480360381019061006c919061013f565b610076565b005b50565b50565b600080fd5b6000819050919050565b6100918161007e565b811461009c57600080fd5b50565b6000813590506100ae81610088565b92915050565b6000602082840312156100ca576100c9610079565b5b60006100d88482850161009f565b91505092915050565b600073ffffffffffffffffffffffffffffffffffffffff82169050919050565b600061010c826100e1565b9050919050565b61011c81610101565b811461012757600080fd5b50565b60008135905061013981610113565b92915050565b60006020828403121561015557610154610079565b5b60006101638482850161012a565b9150509291505056fea2646970667358221220dddb586bbd56f5cdf11b40903222a24d1d86dd9ea3fad298e3007927867f4d4464736f6c63430008140033",
  "immutableReferences": {},
  "source": "// SPDX-License-Identifier: MIT\npragma solidity ^0.8.0;\n\nimport \"@openzeppelin/contracts/token/ERC20/ERC20.sol\";\nimport \"@openzeppelin/contracts/access/Ownable.sol\";\nimport \"@openzeppelin/contracts/token/ERC20/IERC20.sol\";\n\ncontract EnigmaticSlothCoin is ERC20, Ownable {\n    uint256 private constant INITIAL_SUPPLY = 1e9 * 1e18; // 18 \n    uint256 private constant BLOCKS_PER_DAY = 5760; // BSC \n    uint256 private constant AIRDROP_RATE_1000_AND_ABOVE = 2; // 0.002%\n    uint256 private constant AIRDROP_RATE_BELOW_1000 = 1; // 0.0005%\n\n    address public liquidityPool; // \n\n    struct StakingInfo {\n        uint256 stakedAmount;\n        uint256 lastClaimedBlock;\n    }\n\n    mapping(address => StakingInfo) public stakingInfo;\n\n    event Staked(address indexed account, uint256 amount);\n    event Unstaked(address indexed account, uint256 amount);\n    event Claimed(address indexed account, uint256 amount);\n\n    constructor(address initialOwner) ERC20(\"EnigmaticSlothCoin\", \"ESC\") Ownable(initialOwner) {\n        _mint(initialOwner, INITIAL_SUPPLY);\n    }\n\n    function _calculateAirdropAmount(address account) private view returns (uint256) {\n        uint256 balance = balanceOf(account);\n        if (balance >= 1000e18) {\n            return (balance * AIRDROP_RATE_1000_AND_ABOVE) / 1e6; // 0.002%\n        } else {\n            return (balance * AIRDROP_RATE_BELOW_1000) / 1e6; // 0.0005%\n        }\n    }\n\n    function stake(uint256 amount) external {\n        require(amount > 0, \"Amount must be greater than 0\");\n        require(balanceOf(msg.sender) >= amount, \"Insufficient balance\");\n\n        if (stakingInfo[msg.sender].stakedAmount == 0) {\n            stakingInfo[msg.sender].lastClaimedBlock = block.number;\n        }\n\n        stakingInfo[msg.sender].stakedAmount += amount;\n        _transfer(msg.sender, address(this), amount);\n\n        emit Staked(msg.sender, amount);\n    }\n\n    function unstake(uint256 amount) external {\n        require(amount > 0, \"Amount must be greater than 0\");\n        require(stakingInfo[msg.sender].stakedAmount >= amount, \"Insufficient staked amount\");\n\n        stakingInfo[msg.sender].stakedAmount -= amount;\n        _transfer(address(this), msg.sender, amount);\n\n        emit Unstaked(msg.sender, amount);\n    }\n\n    function claimAirdrop() external {\n        uint256 airdropAmount = _calculateAirdropAmount(msg.sender);\n        require(airdropAmount > 0, \"No airdrop available\");\n\n        uint256 blocksSinceLastClaim = block.number - stakingInfo[msg.sender].lastClaimedBlock;\n        uint256 daysSinceLastClaim = blocksSinceLastClaim / BLOCKS_PER_DAY;\n        require(daysSinceLastClaim > 0, \"Airdrop already claimed today\");\n\n        stakingInfo[msg.sender].lastClaimedBlock = block.number;\n        _mint(msg.sender, airdropAmount);\n\n        emit Claimed(msg.sender, airdropAmount);\n    }\n\n    function setLiquidityPool(address _liquidityPool) external onlyOwner {\n        liquidityPool = _liquidityPool;\n    }\n\n    function burn(uint256 amount) external onlyOwner {\n        _burn(msg.sender, amount);\n    }\n}\n\ncontract LiquidityPool {\n    IERC20 private enigmaticSlothCoin;\n\n    constructor(address _enigmaticSlothCoin) {\n        enigmaticSlothCoin = IERC20(_enigmaticSlothCoin);\n    }\n\n    function addLiquidity(uint256 amount) external {\n        // \n        // \n    }\n\n    function claimLP(address recipient) external {\n        // LP\n        // \n    }\n}\n",
  "sourcePath": "/Users/hsuanlin/Desktop/MyTruffleProject/ESC/contracts/ESC.sol",
  "compiler": {
    "name": "solc",
    "version": "0.8.20+commit.a1b79de6.Emscripten.clang"
  },
  "schemaVersion": "3.4.16",
  "updatedAt": "2024-04-29T17:32:24.307Z",
  "networkType": "ethereum",
  "devdoc": {
    "kind": "dev",
    "methods": {},
    "version": 1
  },
  "userdoc": {
    "kind": "user",
    "methods": {},
    "version": 1
  }
}